:400000000040002011000000E50E0000E50E000008B5044B1A6803F53F5302331A6000F063FF00BFFA46004010B5054C237833B9044B13B10448AFF300800123237010BD6F
:4000400028C1FF1F000000000C170000084B10B51BB108480849AFF300800848036803B910BD074B002BFBD0BDE81040184700BF000000000C1700002CC1FF1F08C1FF1FFB
:400080000000000008B562B600F016FF00F0AEFB01F0E8F801F014F901F01EFA01F06CFA01F092F90B4801F03BF90B4B1B78012B05D1FE2001F028F90022074B1A70074B3F
:4000C0001B78012BF1D100F067FE0022034B1A70EBE700BF0CC1FF1F08C5FF1F10C5FF1F08B501F02FF908BD08B50D4BAA221A705A70EF229A700222DA7018715971002307
:400100001A4605E00649C95C0A44D2B20133DBB2052BF7D9024882710721FFF7E1FF08BDB0C1FF1F38B500231C4604E0C25C2244D4B20133DBB24A1E9342F7DB835CA342F0
:4001400033D10378AA2B30D14378AF2B2DD18378022B07D1154A037953704179837943EA0123538005468078102802D12146FFF7BBFFA878112802D12146FFF7B5FFA8785D
:40018000122802D12146FFF7AFFFA878132802D12146FFF7A9FFA878142802D12146FFF7A3FFA8782146FFF79FFF38BD9CC1FF1F10B5294B1B7833B9AA2804D1264B012248
:4001C0001A70187110BD012B06D1AF2804D1224B02221A70587110BD022B06D1F02804D81D4B03221A70987110BD032B0BD1312809D8194B04221A70D87183F83600002266
:4002000083F8372010BD042B13D1134A92F836207AB1013AD2B2104981F8362091F837305C1C81F837400B441872A2B905220A7010BD052B0CD1084B00221A7093F83710E5
:400240005A1810720531181DC9B2FFF76BFF10BD0022014B1A7010BD44C1FF1F08B50D4BAA221A70AF225A7002229A70002218710121D970134605E00649C95C0A44D2B2C1
:400280000133DBB2042BF7D9024842710621FFF727FF08BDB0C1FF1F08B50D4BAA221A70AF225A7005229A70002218710121D970134605E00649C95C0A44D2B20133DBB258
:4002C000042BF7D9024842710621FFF709FF08BDB0C1FF1F00B583B0104BAA221A70AF225A7003229A700022ADF80600010A197158710221D970134605E00849C95C0A448D
:40030000D2B20133DBB2052BF7D9044882710721FFF7E6FE03B05DF804FB00BFB0C1FF1F10B5114BAA221A70AF225A70042199700022DA7004781C7144785C7184789C719B
:40034000C078D871D970134605E00749C95C0A44D2B20133DBB2072BF7D9034802720921FFF7BEFE10BD00BFB0C1FF1F704700BF08B50820FFF772FF08BD00BF08B5002092
:40038000FFF76CFF08BD00BF08B50820FFF766FF08BD00BF08B50120FFF760FF08BD00BF08B50820FFF75AFF08BD00BF08B50220FFF754FF08BD00BF08B50820FFF74EFF51
:4003C00008BD00BF08B50320FFF748FF08BD00BF08B50820FFF760FF08BD00BF08B50020FFF75AFF08BD00BF08B50820FFF754FF08BD00BF08B50120FFF74EFF08BD00BF13
:4004000008B50820FFF748FF08BD00BF08B50220FFF742FF08BD00BF08B50820FFF73CFF08BD00BF08B50320FFF736FF08BD00BF08B543F69820FFF74DFF08BD08B544F6A7
:400440002060FFF747FF08BD08B543F69820FFF741FF08BD08B542F21070FFF73BFF08BD08B503483C230370FFF75AFF08BD00BF80C1FF1F08B5034800230370FFF750FFFD
:4004800008BD00BF80C1FF1F08B503483C230370FFF746FF08BD00BF80C1FF1F08B5034864230370FFF73CFF08BD00BF80C1FF1F08B503483C234370FFF732FF08BD00BF86
:4004C00080C1FF1F08B5034800234370FFF728FF08BD00BF80C1FF1F08B503483C234370FFF71EFF08BD00BF80C1FF1F08B5034864234370FFF714FF08BD00BF80C1FF1F81
:4005000008B503483C238370FFF70AFF08BD00BF80C1FF1F08B5034864238370FFF700FF08BD00BF80C1FF1F08B503483C238370FFF7F6FE08BD00BF80C1FF1F08B50348F6
:4005400000238370FFF7ECFE08BD00BF80C1FF1F08B503483C23C370FFF7E2FE08BD00BF80C1FF1F08B503480023C370FFF7D8FE08BD00BF80C1FF1F08B503483C23C370A8
:40058000FFF7CEFE08BD00BF80C1FF1F08B503486423C370FFF7C4FE08BD00BF80C1FF1F38B5044615468378082262F30713837041608847E37860F3C71365F38613E370E4
:4005C00038BD00BF023140F82120704710B5044643689847E37813F0070302D0228801322280E278B0EBD21F11D01146C2F3C202013202F0070262F3C501E170022A0ADD4E
:40060000CAB260F3C7126FF3C502E27003E0E2786FF3C502E270052B00F2D380DFE813F00600260050009500D100B400E378C3F38012B2EBD31F13D1A3786FF30713A3704A
:40064000A3680BB12046984700232380A378012262F30303A370E37862F30203E37010BDA378082262F30713A37010BDE378C3F38012B2EBD31F10D0A378012262F30713D4
:40068000A370E3680BB12046984700232380E378022262F30203E37010BD2388642B40F29080A378052262F30713A370E3690BB120469847E378052262F30203E37010BD93
:4006C000E378C3F38012B2EBD31F20D1A3786FF30713A370A3680BB120469847A3785A1C62F30303A37003F00F03022B03D1A3690BB12046984723690BB12046984700235F
:400700002380E378032262F30203E37010BD23883C2B56D9A37803F00F03012B09D1A378032262F30713A37063694BB12046984706E0022B04D1A378042262F30713A3703B
:40074000E3786FF30203E37010BDE378C3F38012B2EBD31F35D0A378012262F30713A370E3680BB12046984723883B2B07D800232380E378022262F30203E37010BDE3784A
:400780006FF30203E37010BDE378C3F38012B2EBD31F09D1A378062262F30713A370236A7BB12046984710BDA378012262F30713A370E3680BB120469847E3786FF3020348
:4007C000E37010BD084B5A68134602E0834207D05B6A002BFAD14262034B5860002070474FF0FF30704700BF80C1FF1F38B5D94C2046D9490022FFF7D3FE20460121D74A42
:40080000FFF7E0FE20460021D54AFFF7DBFE2046FFF7D8FFD34C2046D3490022FFF7C0FE20460121D14AFFF7CDFE20460021D04AFFF7C8FE2046FFF7C5FFCE4C2046CE494D
:400840000022FFF7ADFE20460121CC4AFFF7BAFE20460021CA4AFFF7B5FE2046FFF7B2FFC84C2046C8490022FFF79AFE20460121C64AFFF7A7FE20460021C54AFFF7A2FE7E
:400880002046FFF79FFFC34C2046C3490022FFF787FE20460121C14AFFF794FE20460021BF4AFFF78FFE2046FFF78CFFBD4C2046BD490022FFF774FE20460121BB4AFFF789
:4008C00081FE20460021BA4AFFF77CFE2046FFF779FFB84C2046B8490022FFF761FE20460121B64AFFF76EFE20460021B44AFFF769FE2046FFF766FFB24C2046B2490022BA
:40090000FFF74EFE20460121B04AFFF75BFE20460021AF4AFFF756FE2046FFF753FFAD4CAD4D204629460022FFF73AFE20460121AA4AFFF747FE2046FFF744FF20462946E9
:400940000022FFF72DFE20460021A54AFFF73AFE2046FFF737FFA34CA34D204629460022FFF71EFE20460121A04AFFF72BFE2046FFF728FF204629460022FFF711FE2046A0
:4009800000219B4AFFF71EFE2046FFF71BFF994C204699490022FFF703FE20460521974AFFF710FE2046FFF70DFF954C954D204629460022FFF7F4FD20460121924AFFF78F
:4009C00001FE2046FFF7FEFE204629460022FFF7E7FD204600218D4AFFF7F4FD2046FFF7F1FE8B4C8B4D204629460022FFF7D8FD20460121884AFFF7E5FD2046FFF7E2FE60
:400A0000204629460022FFF7CBFD20460021834AFFF7D8FD2046FFF7D5FE814C814D204629460022FFF7BCFD204601217E4AFFF7C9FD2046FFF7C6FE204629460022FFF759
:400A4000AFFD20460021794AFFF7BCFD2046FFF7B9FE774C774D204629460022FFF7A0FD20460121744AFFF7ADFD2046FFF7AAFE204629460022FFF793FD204600216F4A06
:400A8000FFF7A0FD2046FFF79DFE6D4C6D4D204629460022FFF784FD204601216A4AFFF791FD2046FFF78EFE204629460022FFF777FD20460021654AFFF784FD2046FFF7B9
:400AC00081FE634C634D204629460022FFF768FD20460121604AFFF775FD2046FFF772FE204629460022FFF75BFD204600215B4AFFF768FD2046FFF765FE594C594D204624
:400B000029460022FFF74CFD20460121564AFFF759FD2046FFF756FE204629460022FFF73FFD20460021514AFFF74CFD2046FFF749FE4F4C4F4D204629460022FFF730FD43
:400B4000204601214C4AFFF73DFD2046FFF73AFE204693E02CC4FF1FE5130000710300007D03000004C4FF1FF51300008903000095030000B4C3FF1F05140000A10300005C
:400B8000AD03000064C3FF1F15140000B9030000C50300003CC3FF1FBD150000D1030000DD030000E8C2FF1FCD150000E9030000F5030000A4C4FF1FDD15000001040000E5
:400BC0000D04000054C4FF1FED150000190400002504000014C3FF1FAD150000310400003D040000C0C2FF1FFD1500004904000055040000DCC3FF1F0D1600006D03000091
:400C00007CC4FF1F3916000061040000750400006CC2FF1F59160000890400009D040000F4C1FF1F2D160000B1040000C50400008CC3FF1F69160000D9040000ED040000F2
:400C400044C2FF1F1D160000010500001505000094C2FF1F79160000290500003D050000CCC4FF1F4916000051050000650500001CC2FF1F89160000790500002946002213
:400C8000FFF78EFC20460021414AFFF79BFC2046FFF798FD00F0D0FC28B93E4800230370FFF73EFB0DE000F0D7FC28B9394864230370FFF735FB04E036483C230370FFF7E0
:400CC0002FFB022000F0B8FA00F0B0FC28B9314800234370FFF724FB0DE000F0C5FC28B92C4864234370FFF71BFB04E029483C234370FFF715FB022000F09EFA00F08EFC5B
:400D000028B9244800238370FFF70AFB0DE000F0B3FC28B91F4864238370FFF701FB04E01C483C238370FFF7FBFA022000F084FA00F08AFC28B917480023C370FFF7F0FA14
:400D40000DE000F0A1FC28B912486423C370FFF7E7FA04E00F483C23C370FFF7E1FA022000F06AFA00F022FC20B944F62060FFF7B1FA38BD00F042FC20B942F21070FFF731
:400D8000A9FA38BD43F69820FFF7A4FA38BD00BF8D05000080C1FF1F10B5054B5C6803E02046FFF713FC646A002CF9D110BD00BF80C1FF1F08B53E4B1B78012B77D13C4BC7
:400DC0005B78032B6FD8DFE803F0020F1E52394B1B68002B67D0012000F0DCFB344B00225A6001225A705EE0324B1A68304B5B689A4258D8002000F0CDFB2D4B00225A6024
:400E000002225A704FE02B4B5A68294B5B689A4249D8284BD968264A936801339360994204D9134600225A605A703CE0012908D9204B9B682BB11E4B00225A6003225A7087
:400E400031E01C4B1A694AB11949CB680133CB609A4203D800224A700A7024E0012000F099FB134B01225A7000225A601BE0114B9A680F4B5B689A4215D80E4B1A694AB195
:400E80000B49CB680133CB609A4203D800224A700A7008E0012000F07DFB054B01225A7000225A609A60024A53683333536008BD88C1FF1FF4C4FF1F08B5084B00201860F1
:400EC00058609860D8601861054B58605870D8609860187000F05EFB08BD00BFF4C4FF1F88C1FF1FFEE700BF08B5104E104D16E029686B68AC68002204E051F8040B43F8DC
:400F0000040B0432A242F8D1E868002203E0002143F8041B04328242F9D11035013E002EE6D100F0B9FBFFF7ADF8FEE7010000007C17000008B5124A124B1A60124A136843
:400F400043F40073136000230AE0032B03D80F4A52F8231000E00E490E4A42F8231001332F2BF2D90C4B1A780C4B1A70094A0C4B1A6000F0ADF800220A4B1A6008BD00BF1B
:400F80000004FA050CED00E014ED00E000000000E50E000000C0FF1FBC76004004C1FF1F08ED00E000C1FF1FFEE700BFF0B40022174611E050F82760F3B226F0FF0608E06B
:400FC00001EB420511F812406D78A5550132013BDBB2002BF4D10137102FEBD9F0BC7047064B1B78DBB203F00701054A11701B09013213704422034B1A707047CF010049D6
:401000006E5800407658004008B50A46002100F074FB08BD38B51925234B1D80182202331A70022203F27E231A7008224FF040231A70032103F5007319701C4B1B78DBB2E2
:401040001B490B701B4B1A8041F25122023B1A8000240CE0184B1B7803F0010343EA440404F003044FF4F07000F0D6F8013D0DB1032CEFD115B90320FFF796FF0F4B4FF442
:4010800080721A8007221A7000220D490A704820023108701A700222033B1A70094A137843F00103137038BD8040004008010049A1460040224200402542004004400040A1
:4010C00006400040A243004008B500F00BFB08BD70B572B63A4A137843F00403137000240CE0384963001A1952000A4423445B00C8589188FFF788FF0134E4B2092CF0D9AC
:4011000000240BE02F49A3001A1952000A44D06B116C8022FFF7D8FF0134E4B2002CF1D04FF090402849FFF741FF284A137843F0020313701032137843F002031370244C6D
:40114000237843F040032370A2F58632513A137843F0100313701F481F490A22FFF7B4FF1E481F490A22FFF7AFFF1E481E490A22FFF7AAFF1D481E490A22FFF7A5FF1D48CC
:401180001D490A22FFF7A0FF1C481D490A22FFF79BFF1C4A137843F0080313701A4E01253570FFF737FF81233370184B1D70FFF717FF174821460E22FFF786FF70BD00BFD1
:4011C000E8460040101700004400004803500140A04300400051004028030048F0510040340300482051004040030048305100404C0300484051004058030048605100401A
:4012000064030048224300400048004004000840B0430040000000000230800803D000BF01380046FCD17047EFF3108072B6704780F31088704700BF10B5044605E0084BEB
:401240001868FFF7E9FFA4F50044B4F5004FF6D8034B586800FB04F0FFF7DEFF10BD00BF18C1FF1F7222074B1A70202201331A700622623B1A70472210331A70002253337D
:401280001A7070478565004010B5FFF7CDFF04460A4A137843F0200313700132137843F0100313700132137843F01003137000F05DF82046FFF7BCFF10BD00BF956500400A
:4012C00008B5054B1B7823B9FFF7CCFF0122024B1A70FFF7D9FF08BD98C1FF1F084B1B78DBB213F0200F06D0064A1078C0B213F01E0F02D17047002070470020704700BFC1
:401300006665004045650040034B1B7813F0040FFAD1024B18707047676500404765004038B5074B1B782BB938BDFFF7EDFF0134A4B201E005460024285D0028F5D138BDA2
:4013400098C1FF1F084B1B7833B97047305DFFF7DBFF0134E4B203E070B50D4606460024AC42F3D370BD00BF98C1FF1F054A137843F0010313701032137843F00103137048
:40138000704700BFA243004008B5FFF7A7FFFEF70FFF08BD014B1B681864704708ED00E04001C0B2014B1870704700BF00E400E00122014B1A60704700E100E00122014B09
:4013C0001A60704780E100E008B5FFF7F7FF0448FFF7E0FF0720FFF7E3FFFFF7E9FF08BD89130000024B1878C0F34010704700BFF1510040024B1878C0F3C000704700BFD5
:4014000061510040024B187800F00100704700BF21510040024B1878C0F30010704700BFF1510040084A137843F0010313701032137843F00103137002F64D32137843F0D9
:4014400001031370704700BFA3430040014B1870704700BF034F0040014B1880704700BF044F0040014B1880704700BF064F004008B5164A137803F00103137002321378B0
:4014800003F0FC031370124B1A7802F0CF021A701A7842F030021A701A7802F0F0021A701A7842F00F021A700A4A137843F00103137045F6BF50FFF7CFFF45F6BF50FFF7B5
:4014C000D1FF0820FFF7C2FF08BD00BF004F00400B4F0040014F004008B5054B1B7823B9FFF7C6FF0122024B1A70FFF79BFF08BD9AC1FF1F08B50F4A138801339BB213803C
:401500000D490A88013292B20A80B2F57A7F05D901210A4A11800021074A1180052B07D9FFF748FC0122064B1A700022014B1A8008BD00BF0CC5FF1F0AC5FF1F08C5FF1F9F
:4015400010C5FF1F014B1B685864704708ED00E04001C0B2014B1870704700BF01E400E00222014B1A60704700E100E00222014B1A60704780E100E008B5FFF7F7FF044866
:40158000FFF7E0FF0720FFF7E3FFFFF7E9FF08BDF5140000044A137803F0FE0300F0010018431070704700BF00510040024B1878C0F34000704700BF61510040024B1878F6
:4015C000C0F30010704700BF21510040024B1878C0F34000704700BF21510040024B1878C0F38000704700BF21510040024B1878C0F3C000704700BF21510040024B18787B
:4016000000F00100704700BF61510040024B1878C0F38000704700BF61510040024B1878C0F3C000704700BF41510040014B1878C009704701510040024B1878C0F3401073
:40164000704700BF01510040024B1878C0F34010704700BF41510040024B1878C0F30010704700BF01510040024B1878C0F38010704700BF01510040024B1878C0F380005A
:40168000704700BF41510040024B1878C0F30010704700BF415100400E4B70B51E460E4C0025E41AA410A54204D056F8253098470135F8E700F050F8084B094C1E46E41A53
:4016C000A4100025A54204D056F8253098470135F8E770BD6417000064170000641700006C17000010B5431E0A44914204D011F8014B03F8014FF8E710BD034602449342D3
:4017000002D003F8011BFAE77047000000000000004F00400C00105100401000505100401000C0510040100000000140001000140140800000150140000700400140000A7C
:40174000004C0140000200500140200080140140A802004880000000F8B500BFF8BC08BC9E4670474D000000350F0000F8B500BFF8BC08BC9E467047290000009017000083
:4017800008C1FF1F20000000F0030000000000000000000041542B434F4E4E4C000000000000E02EC05D00001800000000366E01000000000000000000000000000000000D
:4017C00000000000000000000000000000000000000000000000000000000000000000000000000000000000000000000000000000000000000000000000000000000000E9
:4018000000000000000000000000000000000000000000000000000000000000000000000000000000000000000000000000000000000000000000000000000000000000A8
:401840000000000000000000000000000000000000000000000000000000000000000000000000000000000000000000000000000000000000000000000000000000000068
:401880000000000000000000000000000000000000000000000000000000000000000000000000000000000000000000000000000000000000000000000000000000000028
:020000040001F9
:0200000480007A
:40000000024F004007520040036500401D140140471501405D1601403E1701400418014002190140044001400341014005420140024301400848014007490140025001400F
:400040000151014001800A3604F0141F18081C04243C340F7C3085728638870F0A010B010C011201180123013001350138023A803F104006450449FF4A074BFF4C404D20A2
:400080004EF04F055008580459045A045F01604061A86240632001800304044A0540070409220D080E050F80171919821A011C501DA21E04230424812501270429022D90D1
:4000C0002E042F4034203540360137043A103D083E223F8045AD48104A084C044D905020561057015C106D046F0A762277198021834087488D01900A9481950497049901C3
:40010000A104A209A430A74BAC84AE84B002B220C0F3C2FAC470CAF1CCF0CEF4D0F0D214D620E64005770D120E400F29108C11241213131114111501160E170618201A0319
:400140001E402011228629772A082D402E8C300F3108328A3340344035073630373038803A0A3E1054185604580459045B045F01812A8344881089038B448C108D738E0C08
:400180008F0C90099210940C95739611970498209A039B559C1C9E02A308A440A814B020B10FB240B330B41FB540B908BB02BE05BF14C046C103C50EC6C0C70BC819C9FFB8
:4001C000CAFFCBFFCEF0CF44D00CD401D604D804D904DA04DB04DF01E6C0EA40EB020060020404A0052009080A080B820C200D080E400F02100812201502160519051A08C2
:400200001D081E441FC1204821012208240A2504260127052A012B802F0A30203118370538603B023D043F804040410849104A205018588259245C0162026440668067043F
:4002400084408602C083C2FFC4D6CA31CCC6CE5DD003D204D68FD8B1E208B920BF10D904DF0123088708314033013680CC709D409F01A68012809D409F01A680C4109D401C
:400280009F016780854087419D409F01D880E250E6100302562083028E20C040D440E02010011A01003B000002108000030040E31C1823001F44200001008004003C23C2CC
:4002C00033800C003F1C00E10808000004E700180CC0000000FF00002C3810000F1FC0C00000222000004400230504000100E0C028FFFFFF62A0F0410C0000000000021139
:4003000004040404000000010000000000004002001030100010101200000000000000000000000000000000F00000F10100000000000000300000300000000000000000A6
:400340001F00001F00000000000000000800040808000800000000003C00003C00000000000000000F00000F00000000000000000000000000000000000000000000000085
:40038000000000000000000000000000000000000000000000000000000000000000000000000000000000000000000000000000000000000000000000000000000000003D
:4003C00000000000000000000000000000000000000000000000000000000000000000000000000000000000000000000000000000000000000000000000000000000000FD
:4004000000000000000000000000000000000000000000000000000000000000000000000000000000000000000000000000000000000000000000000000000000000000BC
:40044000000000000000000000000000000000000000000000000000000000000000000000000000000000000000000000000000000000000000000000000000000000007C
:0200000490006A
:0400000000004005B7
:0200000490105A
:04000000BC90ACAF55
:0200000490303A
:020000003F5B64
:0200000490402A
:4000000000000000000000000000000000000000000000000000000000000000000000000000000000000000000000000000000000000000000000000000000000000000C0
:400040000000000000000000000000000000000000000000000000000000000000000000000000000000000000000000000000000000000000000000000000000000000080
:0200000490501A
:0C00000000012E13306900012E1D6FC49A
:00000001FF