:400000000040002011000000450600004506000008B5044B1A6803F53F5302331A6000F013FB00BFFA46004010B5054C237833B9044B13B10448AFF300800123237010BD13
:4000400020C1FF1F00000000A4110000084B10B51BB108480849AFF300800848036803B910BD074B002BFBD0BDE81040184700BF00000000A411000024C1FF1F08C1FF1FE7
:400080000000000008B562B600F01CFD00F078FE00F0C6FE00F088FD00F00AFE01F03AF8012000F0CBFE052000F090FC00F092FD264B00249C824FF496625A834FF45772E7
:4000C0009A834FF47A6000F093FD0125204B9D7000F0C0F900F05EFA1E4E30461E496422134600F089FA304600F090FA1B4E30461B494FF47A720A2300F07EFA304600F0BF
:4001000085FA184E3046184922464FF47A7300F073FA304600F07AFA144E304614492246052300F069FA304600F070FA284600F085FE142000F060FC204600F08BFE4FF4C9
:400140007A7000F059FC00F0B3FDFEE71CC3FF1F80C3FF1F4CC3FF1FE90500003CC3FF1F850300005CC3FF1F6104000070C3FF1F8104000008B500F0D5FC08BD08B50D4BDD
:40018000AA221A705A70EF229A700222DA701871597100231A4605E00649C95C0A44D2B20133DBB2052BF7D9024882710721FFF7E1FF08BD88C3FF1F10B500231A4604E03F
:4001C000C45C2244D2B20133DBB24C1EA342F7DB035D934253D10378AA2B50D14378AA2B01D0AF2B4BD18378012B11D1244B01791970417959708479C17941EA0421598094
:40020000047A417A41EA0421998201211D4B597004468078102802D11146FFF7AFFFA378092B05D12279632A02D10121154A51700B2B0AD121796379114A43EA0123538314
:40024000A179E37943EA01239383A3780C2B0BD123790B4A9375042B03D10022084BDA7502E00122064BDA75A3780D2B07D12079637943EA0020024B188300F0B9FC10BDC7
:400280001CC3FF1F80C3FF1F10B52A4B1B7833B9AA2804D1274B01221A70187110BD012B08D1AA2801D0AF2804D1224B02221A70587110BD022B06D1F02804D81D4B032281
:4002C0001A70987110BD032B0BD1312809D8194B04221A70D87183F83600002283F8372010BD042B13D1134A92F836207AB1013AD2B2104981F8362091F837305C1C81F848
:4003000037400B441872A2B905220A7010BD052B0CD1084B00221A7093F837105A1810720531181DC9B2FFF747FF10BD0022014B1A7010BD3CC1FF1F00B583B0104BAA22F4
:400340001A705A700B229A7000221871ADF80610080A587199710321D970134605E00849C95C0A44D2B20133DBB2062BF7D90448C2710821FFF7FEFE03B05DF804FB00BF92
:4003800088C3FF1F08B52D4B93F838202C4BA3FB0213DB0803EB83035B00D31ADBB2092B02D10121274B9970274BA3FB0213DB08C3EB0313D31ADBB20E2B02D10121214BE2
:4003C00059701F4BA3FB02131B0903EB83039B00D31ADBB2132B02D101211A4B5972184BA3FB02131B0903EB83039B00D31ADBB2132B02D10121134BD972144BA3FB021356
:400400001B09322101FB1323DBB2312B02D101210C4B19730132094B83F83820094B1B7853B9084B5B783BB10022064B5A70084B18789988FFF780FF08BD00BF3CC1FF1F9E
:40044000CDCCCCCCBCC3FF1F898888881F85EB5180C3FF1F0122014B1A70704780C3FF1F064B5B78012B04D1044B00225A709A7070470122014B9A70704700BF80C3FF1FCA
:4004800008B5414B9B78002B75D1404BDB7D33B93E4B9B8A642B02D93C4B5B7823B13B4B9B8AB3F5FA6F34D9384B9A8A5B8B9A4212D3012000F0C2FC142000F09DFA012098
:4004C00000F0C8FC4FF47A7000F096FA00F0F0FB00222F4B1A7008BD2C4B9B8B9A4212D8012000F0ABFC142000F086FA002000F0B1FC4FF47A7000F07FFA00F0D9FB0022DD
:40050000234B1A7008BD002000F098FC00F062FB08BD1E4B9B7D012B12D1012000F08EFC142000F069FA012000F094FC4FF47A7000F062FA00F0BCFB0022154B1A7008BD04
:40054000022B12D1012000F079FC142000F054FA002000F07FFC4FF47A7000F04DFA00F0A7FB00220A4B1A7008BD002000F066FC00F030FB08BD0020044BD87500F05EFCD4
:4005800000F028FB08BD00BF80C3FF1F1CC3FF1F78C1FF1F08B500F01FFD00F02BFD08BD10B5002406E000F02DFD0D4B23F814000134E4B2632CF6D90022134605E00849FF
:4005C00031F913100A440133DBB2632BF7D9054880FB0230D217C2EB601080B210BD00BF7CC1FF1F1F85EB5108B5FFF7D9FF014B988008BD80C3FF1F8160034909680A4447
:4006000002604360704700BF0CC3FF1F084B5A68134602E0834207D0DB68002BFAD1C260034B5860002070474FF0FF30704700BF0CC3FF1F024A136801331360704700BF79
:400640000CC3FF1FFEE700BF08B5104E104D16E029686B68AC68002204E051F8040B43F8040B0432A242F8D1E868002203E0002143F8041B04328242F9D11035013E002E32
:40068000E6D100F055FDFFF7FDFCFEE7010000001412000008B5124A124B1A60124A136843F40073136000230AE0032B03D80F4A52F8231000E00E490E4A42F82310013346
:4006C0002F2BF2D90C4B1A780C4B1A70094A0C4B1A6000F0E1F800220A4B1A6008BD00BF0004FA050CED00E014ED00E0000000004506000000C0FF1FBC76004004C1FF1F6E
:4007000008ED00E000C1FF1FFEE700BFF0B40022174611E050F82760F3B226F0FF0608E001EB420511F812406D78A5550132013BDBB2002BF4D101371D2FEBD9F0BC7047D2
:4007400070B4154B1B78DBB214480278D2B2144C2178C9B203F00706124D2E701B0901352B7042F00303037041F0030323702023A5F242752B7040250B4E35700236357034
:4007800002260A4D2E7003352B70217002704422074B1A7070BC7047CF010049F8460040F94600406E58004001590040205B00407658004008B50A46002100F0EAFC08BDD9
:4007C00038B50E22284B1A801823284A137017210232118002321370192502321580023213700222224B1A7008224FF040231A70032103F5007319701E4B1B78DBB21E49B4
:400800000B701E4B1A8041F25122023B1A8000240CE01B4B1B7803F0010343EA440404F003044FF4F07000F0BFF8013D0DB1032CEFD115B90320FFF767FF124B4FF4807239
:400840001A8007221A7000220F490A704820023108701A700222033B1A700C4A137843F00703137038BD00BF80400040824000400043004008010049A146004022420040B7
:40088000254200400440004006400040A243004008B500F073FC08BD70B572B6324A137843F00403137000240CE0304963001A1952000A4423445B00C8589188FFF77AFF47
:4008C0000134E4B2092CF0D900240BE02749A3001A1952000A44D06B116C8022FFF7D8FF0134E4B2002CF1D04FF090402049FFF70DFF204A137843F0020313701032137864
:4009000043F0020313701C4C237843F040032370A2F58632513A137843F010031370174817490A22FFF7B4FF164817490822FFF7AFFF164816490A22FFF7AAFF154A137830
:4009400043F008031370144E01253570FFF738FF81233370114B1D70FFF7F2FE104821460E22FFF795FF70BDE8460040A81100007800004803500140A04300400051004071
:40098000E805004822510040F405004830510040FC050048224300400048004004000840B0430040000000000230800803D000BF01380046FCD17047EFF3108072B67047B8
:4009C00080F31088704700BF01BE704710B5044605E0084B1868FFF7E7FFA4F50044B4F5004FF6D8034B586800FB04F0FFF7DCFF10BD00BF0CC1FF1F08B5034B1B7A03FBD7
:400A000000F0FFF7D1FF08BD0CC1FF1F70B504460E46074B1D681F2802D90020FFF7D4FF04F01F04103455F8240045F8246070BD08ED00E038B504460D46072902D9002067
:400A4000FFF7C2FF1F2C02D90020FFF7BDFF04F01F0000F1604000F564406D01EDB2057038BD00BF7222084B1A702022033B1A700622A3F5AF731A70472210331A70002215
:400A800051331A70704700BF8765004010B5FFF793FF04460A4A137843F020031370033A137843F010031370FD3A137843F01003137000F04BF82046FFF782FF10BD00BF7F
:400AC0009765004008B5054B1B7823B9FFF7CAFF0122024B1A70FFF7D9FF08BD14C3FF1F084B1B78DBB213F0200F06D0064A1078C0B213F01E0F02D1704700207047002087
:400B0000704700BF6465004044650040034B1B7813F0040FFAD1024B187070476764004047640040084B1B7833B97047305DFFF7EDFF0134E4B203E070B50D46064600247B
:400B4000AC42F3D370BD00BF14C3FF1F054A137843F0040313701032137843F004031370704700BFA243004008B5FFF7B9FFFFF78BFB08BD014B1B685864704708ED00E061
:400B80004001C0B2014B1870704700BF01E400E00222014B1A60704700E100E00222014B1A60704780E100E008B5FFF7F7FF0448FFF7E0FF0720FFF7E3FFFFF7E9FF08BDC3
:400BC000690B0000024A137843F080031370704775640040024A137803F07F031370704775640040014B1880704700BF08680040014B1880704700BF88680040014B18808A
:400C0000704700BF48680040014B1880704700BF68680040014B1870704700BF85640040014B1878704700BF65640040014B188880B27047A868004008B501E0FFF7F6FF68
:400C4000FFF7EEFF10F0100FF8D108BD10B5164A137803F0C00343F0090313701F32137843F001031370114C237843F0010323704FF4FA70FFF7B6FF4FF4FA70FFF7B8FFB2
:400C8000FA20FFF7BBFF3F20FFF7BEFF0020FFF7C1FFFFF791FE237843F010032370FFF78FFEFFF7C9FF10BD756400409564004008B5054B1B7823B9FFF7C8FF0122024B80
:400CC0001A70FFF77FFF08BD16C3FF1F084A137843F0010313701032137843F00103137002F64D32137843F001031370704700BFA3430040014B1870704700BF034F0040E8
:400D0000014B1880704700BF044F0040014B1880704700BF064F004008B5164A137803F0010313700232137803F0FC031370124B1A7802F0CF021A701A7842F030021A70C5
:400D40001A7802F0F0021A701A7842F00F021A700A4A137843F00103137045F6BF50FFF7CFFF45F6BF50FFF7D1FF0820FFF7C2FF08BD00BF004F00400B4F0040014F004041
:400D800008B5054B1B7823B9FFF7C6FF0122024B1A70FFF79BFF08BD17C3FF1F08B50F4A138801339BB213800D490A88013292B20A80B2F57A7F05D901210A4A1180002161
:400DC000074A1180052B05D90122074B1A700022024B1A80FFF72EFC08BD00BFCEC3FF1FCCC3FF1FCAC3FF1FD2C3FF1F014B1B689864704708ED00E04001C0B2014B1870BF
:400E0000704700BF02E400E00422014B1A60704700E100E00422014B1A60704780E100E008B5FFF7F7FF0448FFF7E0FF0720FFF7E3FFFFF7E9FF08BD9D0D0000044A13783F
:400E400003F0FD03400000F0020018431070704700510040044A137803F0FB03800000F004001843107070470051004008B50A280FD00C2802D0082806D102E04FF48052F7
:400E800009E04FF4807206E00020FFF79DFD002201E04FF480620021094B198042F2107303FB02F303F6C413064A82FB0302DB17C3EBE223044A1360044B198008BD00BF2A
:400EC000DAC3FF1FAD8BDB68D4C3FF1FD8C3FF1F10B5FFF771FD04461E4A137843F0010313701032137843F001031370193A137843F0010313701032137843F00103137088
:400F000002F5AA521132137843F0030313701822114B1A70013B1A7842F040021A701A7802F0FC021A70C822053B1A700222A3F597530C3B1A70094A137843F00803137072
:400F40000A20FFF759FD0122054B1A602046FFF737FD10BDAB43004006590040275B004080E200E010B504460A280DD00C2802D0082804D101E0C22207E0422205E00020A2
:400F8000FFF722FDC22200E08222034B1A702046FFF76CFF10BD00BF0259004008B5102000F03EF800200721FFF744FD00200749FFF72CFD064A137843F0060313700C2007
:400FC000FFF7D0FF0022034B1A8008BD1D10000001590040DCC3FF1F08B5054B1B7823B9FFF7DCFF0122024B1A70FFF771FF08BD18C3FF1F024A137843F001031370704726
:4010000000590040034B1B88034A1088181A00B2704700BFA05B0040D8C3FF1F704700BF034B1A7800F0F80010431870704700BF82400040024A137843F08003137070479B
:4010400074640040014B1880704700BF04680040014B1880704700BF84680040014B1880704700BF44680040014B1880704700BF64680040014B1870704700BF83640040AF
:40108000014B1878704700BF63640040014B188880B27047A468004008B501E0FFF7F6FFFFF7EEFF10F0100FF8D108BD10B5174A137803F0C00343F0090313701E32137899
:4010C00043F001031370124C237843F0010323704FF4FA60FFF7B6FF4FF4FA60FFF7B8FF4FF47A70FFF7BAFF3F20FFF7BDFF0020FFF7C0FFFFF760FC237843F01003237059
:40110000FFF75EFCFFF7C8FF10BD00BF746400409364004008B5054B1B7823B9FFF7C6FF0122024B1A70FFF785FF08BD19C3FF1F0E4B70B51E460E4C0025E41AA410A54263
:4011400004D056F8253098470135F8E700F050F8084B094C1E46E41AA4100025A54204D056F8253098470135F8E770BDFC110000FC110000FC1100000412000010B5431E07
:401180000A44914204D011F8014B03F8014FF8E710BD03460244934202D003F8011BFAE77047000000000000004F00400C00105100401000405100403000C051004010005B
:4011C000F0510040100000000140001080140140800700400140000A004C01400002005001402000001401406805004880000000F8B500BFF8BC08BC9E4670474D00000090
:4012000095060000F8B500BFF8BC08BC9E467047290000002812000008C1FF1F18000000C002000000000000000000000000E02EC05D00001800000000366E010000000088
:40124000000000000000000000000000000000000000000000000000000000000000000000000000000000000000000000000000000000000000000000000000000000006E
:40128000000000000000000000000000000000000000000000000000000000000000000000000000000000000000000000000000000000000000000000000000000000002E
:4012C00000000000000000000000000000000000000000000000000000000000000000000000000000000000000000000000000000000000000000000000000000000000EE
:4013000000000000000000000000000000000000000000000000000000000000000000000000000000000000000000000000000000000000000000000000000000000000AD
:020000040001F9
:0200000480007A
:40000000024F004002520040015B0040036400400265004048020140210301404A0401402A0501405E06014035070140010901400E14014045150140381601402F17014041
:40004000041A0140031B0140054001400A4101400A420140044301400246014003470140054801400C490140014C0140024D0140055001400151014001800A3601201C0816
:400080002784830F850F870F843887720E0116012B012F01330134014060410249FF4AFF4BFF4DA04F045018580459045A045C115D015F01604062C06440654066C068C038
:4000C0006AC06CC06EC0820888029B01A203A604AA08AD01B008B201B402B604B701BE01C010C106C5D1C605C702C817C9FFCAFFCBFFCDAFCE0FCF04D018D407D804D90428
:40010000DA04DB04DC11DD11DF01E040E2C0E440E540E6C0E8C0EAC0ECC0EEC0001106020D0810A01204185019601F202240272029402C082D80302040014604482849014E
:400140004F2050885204580859215A808720C08AC220C40ECA38CC04D028D224D60F2E01340136014030410249FF4AFF4BFF4DA04F045018528058045A045B045C015D115D
:400180005F01604062C06440654066C068C06AC06CC06EC08301860287028A028E089D02AA04AD01AE01B008B201B302B402B604B701BE10C030C102C5D0C620C715C83A7F
:4001C000C9FFCAFFCBFFCDAFCE0FCF04D018D280D407D804D904DA04DB04DC11DD11DF01E040E2C0E440E540E6C0E8C0EAC0ECC0EEC0041006121002160417401801198074
:400200001B101C101D481E081F02264027202F0235403E0A4010412045284F015520561E5E885F2170027740804094019D809E02A508A710A848AF20C0E0C4C1CA10CC102A
:40024000CEC0D066D6F007080B130C100E0C116C120313031531170E18101B4C1C14201C2202240C261128092A102D312F46301F3330354A370F39083BA03F044002450459
:4002800049FF4A074BFF4C404D204EF04F055008580459045A045C225D025F01604061A862406320830284138502860489048C138E0C91029608A00AA214A501A615A803C6
:4002C000AA14B00FB301B506B610B920BA02BE40BF04C053C102C50EC60BC70CC815C9FFCAFFCBFFCEF0CF44D00CD401D604D804D904DA04DB04DC22DD22DF01E6C0EA40F2
:40030000EB020004030205800A200C800E800F04102813221520170A19401B021E80211022342405271B29042D802F0233023620370938053A203F24400442204710498488
:400340004F045088542056205710580259405A085B2060409440C085C2D4C47ECA12CCE1CE67D026D208D60FD801EE04EE0496019A019B019D01A701AD01B301B401B90884
:40038000BE10D804D904DC20DF01019003200A560D080E08100A110615081620180119051A141D102184220223202604280129042A222C012E402F2030083202336037602D
:4003C000382839823B404001425049204B4051095901619063808048834187049028919492429308948095089614970199A09A029B40A002A101A320A921AD84C007C26F18
:40040000C40FCA5FCC3FCE0FD00BD20CD601D80DE602E81000021001140224022C02320134023B023E14580459045C205F01801F8110840F8503861089038C028D018F025F
:4004400090139102920C930196139704980399189B049C019D1CA008A104A318A404A508A80CA918AC0CAD1CAE13B00FB103B41CB71CBA22D602D711D804D904DB04DC2233
:40048000DD20DF0100400360050108040A540B010E800F20108113281508174019011A401B301D101F0420402140220125012740280129812A28300432013360388039149F
:4004C0003A025910680269147094722A7328A240A802A904C01DC23FC4AFCA0FCC0FCE0FD60438803E4058045F011A028601E8103204332035083710CCF053806304870425
:4005000096089D089F10A720D420D840E2401280810896089D089F10A720AF80C410E620EE109F10AB20AE84EE201B04C6084402AB04D004240867409F10C820D8800704BC
:4005400063028314874197409F10B404C080D640E080E220E6509C02B402E808000608020A0610041A0400EF00000040001803009C08000000000340030000040004032096
:40058000071C3801121F4400031000009C000003091C4402800700180320801F1C006040000000080000404043060500010000CE30FFFFFF62A0F0410C0000001800040003
:4005C000040404042222000100000000000040020010301000101012000000000000000000000000000000004000007E7E0028000000000000000000000020001000081036
:40060000100010000000000000000000000000000000000000000000000000000000000000000000000000000000000000000000000000000000000000000000000000009A
:40064000000000000000000000000000000000000000000000000000000000000000000000000000000000000000000000000000000000000000000000000000000000007A
:40068000000000000000000000000000000000000000000000000000000000000000000000000000000000000000000000000000000000000000000000000000000000003A
:4006C00000000000000000000000000000000000000000000000000000000000000000000000000000000000000000000000000000000000000000000000000000000000FA
:4007000000000000000000000000000000000000000000000000000000000000000000000000000000000000000000000000000000000000000000000000000000000000B9
:0200000490006A
:0400000000004005B7
:0200000490105A
:04000000BC90ACAF55
:0200000490303A
:020000008EA4CC
:0200000490402A
:4000000000000000000000000000000000000000000000000000000000000000000000000000000000000000000000000000000000000000000000000000000000000000C0
:400040000000000000000000000000000000000000000000000000000000000000000000000000000000000000000000000000000000000000000000000000000000000080
:0200000490501A
:0C00000000012E13306900012E1BBF0D03
:00000001FF