:400000000040002011000000510600005106000008B5044B1A6803F53F5302331A6000F019FB00BFFA46004010B5054C237833B9044B13B10448AFF300800123237010BDF5
:4000400020C1FF1F00000000CC100000084B10B51BB108480849AFF300800848036803B910BD074B002BFBD0BDE81040184700BF00000000CC10000024C1FF1F08C1FF1F99
:400080000000000008B562B600F02CFD00F08AFE00F0D8FE00F098FD00F01CFE012000F0DFFE052000F0A2FC00F0A4FD644B00229A824FF496629A834FF45772DA834FF462
:4000C0007A6000F0A5FD01225E4B1A7000F038FA00F03CFA5C4C20465C496422134600F067FA204600F06EFA594C204659494FF47A720A2300F05CFA204600F063FA564BB2
:400100001B78012B0FD10022534B1A704C4B9B7E012B05D113464A4A93764A4A137002E00122484B1A704D4B1B78012B40F08480444B1B78002B75D1414BDB7D33B9404B7C
:400140009B8A642B02D93E4B5B7823B13C4B9B8AB3F5FA6F34D93A4B9A8A9B8B9A4212D3012000F07DFE142000F056FC012000F083FE4FF47A7000F04FFC00F0ABFD0022B0
:40018000374B1A7055E02E4BDB8B9A4212D8012000F066FE142000F03FFC002000F06CFE4FF47A7000F038FC00F094FD00222C4B1A703EE0002000F053FE00F01BFD38E077
:4001C0001F4B9B7D012B12D1012000F049FE142000F022FC012000F04FFE4FF47A7000F01BFC00F077FD00221D4B1A7021E0022B12D1012000F034FE142000F00DFC002029
:4002000000F03AFE4FF47A7000F006FC00F062FD0022134B1A700CE0002000F021FE00F0E9FC06E00020064BD87500F019FE00F0E1FC0022094B1A7000F0E8F95FE700BFE0
:400240001CC3FF1F50C3FF1F54C3FF1FA105000040C3FF1F71040000AEC3FF1FB6C3FF1F18C3FF1F08B500F06DFC08BD08B50D4BAA221A705A70EF229A700222DA7018719E
:40028000597100231A4605E00649C95C0A44D2B20133DBB2052BF7D9024882710721FFF7E1FF08BD6CC3FF1F10B500231A4604E0C45C2244D2B20133DBB24C1EA342F7DBA0
:4002C000035D934253D10378AA2B50D14378AA2B01D0AF2B4BD18378012B10D1244B01791970417959708479C17941EA04215980047A417A41EA0421998201219976044661
:400300008078102802D11146FFF7B0FFA378092B05D12379632B02D10122154B9A76A3780B2B0AD121796379114A43EA01239383A179E37943EA0123D383A3780C2B0BD15A
:4003400023790B4A9375042B03D10022084BDA7502E00122064BDA75A3780D2B07D12079637943EA0020024B188300F051FC10BD1CC3FF1F10B52A4B1B7833B9AA2804D1DC
:40038000274B01221A70187110BD012B08D1AA2801D0AF2804D1224B02221A70587110BD022B06D1F02804D81D4B03221A70987110BD032B0BD1312809D8194B04221A7086
:4003C000D87183F83600002283F8372010BD042B13D1134A92F836207AB1013AD2B2104981F8362091F837305C1C81F837400B441872A2B905220A7010BD052B0CD1084B86
:4004000000221A7093F837105A1810720531181DC9B2FFF749FF10BD0022014B1A7010BD3CC1FF1F00B583B0104BAA221A705A700B229A7000221871ADF80610080A58719E
:4004400099710321D970134605E00849C95C0A44D2B20133DBB2062BF7D90448C2710821FFF700FF03B05DF804FB00BF6CC3FF1F08B52D4B93F838202C4BA3FB0213DB08E8
:4004800003EB83035B00D31ADBB2092B02D10121274B9970274BA3FB0213DB08C3EB0313D31ADBB20E2B02D10121214B59701F4BA3FB02131B0903EB83039B00D31ADBB2DC
:4004C000132B02D101211A4B5972184BA3FB02131B0903EB83039B00D31ADBB2132B02D10121134BD972144BA3FB02131B09322101FB1323DBB2312B02D101210C4B19737E
:400500000132094B83F83820094B1B7853B9084B5B783BB10022064B5A70084B18785988FFF780FF08BD00BF3CC1FF1FCDCCCCCCA0C3FF1F898888881F85EB5168C3FF1F4B
:400540000122014B1A70704768C3FF1F08B500F055FD00F061FD08BD10B5002406E000F063FD0D4B23F814000134E4B2632CF6D90022134605E0084931F913100A44013321
:40058000DBB2632BF7D9054880FB0230D217C2EB601080B210BD00BF78C1FF1F1F85EB5108B5FFF7D9FF014B588008BD68C3FF1F8160034909680A4402604360704700BF37
:4005C00008C3FF1F084B5A68134602E0834207D0DB68002BFAD1C260034B5860002070474FF0FF30704700BF08C3FF1F064A06E0834202D1DB68136001E003F10C0213683F
:40060000002BF5D1704700BF0CC3FF1F10B50B4B5C680FE02268094B1B689A4209D862681AB92046FFF7E2FF01E013442360A3689847E468002CEDD110BD00BF08C3FF1F50
:40064000024A136801331360704700BF08C3FF1FFEE700BF08B5104E104D16E029686B68AC68002204E051F8040B43F8040B0432A242F8D1E868002203E0002143F8041BC8
:4006800004328242F9D11035013E002EE6D100F0E3FCFFF7F7FCFEE7010000003811000008B5124A124B1A60124A136843F40073136000230AE0032B03D80F4A52F8231056
:4006C00000E00E490E4A42F8231001332F2BF2D90C4B1A780C4B1A70094A0C4B1A6000F0E1F800220A4B1A6008BD00BF0004FA050CED00E014ED00E0000000005106000065
:4007000000C0FF1FBC76004004C1FF1F08ED00E000C1FF1FFEE700BFF0B40022174611E050F82760F3B226F0FF0608E001EB420511F812406D78A5550132013BDBB2002B0F
:40074000F4D101371C2FEBD9F0BC704770B4154B1B78DBB214480278D2B2144C2178C9B203F00706124D2E701B0901352B7042F00303037041F0030323702023A5F24275A0
:400780002B7040250B4E35700236357002260A4D2E7003352B70217002704422074B1A7070BC7047CF010049F8460040F94600406E58004001590040205B004076580040C7
:4007C00008B50A46002100F078FC08BD38B50E22284B1A801823284A137017210232118002321370192502321580023213700222224B1A7008224FF040231A70032103F549
:40080000007319701E4B1B78DBB21E490B701E4B1A8041F25122023B1A8000240CE01B4B1B7803F0010343EA440404F003044FF4F07000F0C9F8013D0DB1032CEFD115B954
:400840000320FFF767FF124B4FF480721A8007221A7000220F490A704820023108701A700222033B1A700C4A137843F00703137038BD00BF804000408240004000430040C3
:4008800008010049A146004022420040254200400440004006400040A243004008B500F001FC08BD70B572B6354A137843F00403137000240CE0334963001A1952000A4400
:4008C00023445B00C8589188FFF77AFF0134E4B2082CF0D900240BE02A49A3001A1952000A44906BD16B8022FFF7D8FF0134E4B2002CF1D04FF090402349FFF70DFF234A86
:40090000137843F0020313701032137843F0020313701F4C237843F040032370A2F58632513A137843F0100313701A481A490A22FFF7B4FF19481A490822FFF7AFFF19481F
:4009400019490822FFF7AAFF184819490A22FFF7A5FF184A137843F008031370164E01253570FFF733FF81233370144B1D70FFF7EDFE134821460E22FFF790FF70BD00BF48
:40098000E8460040D01000007400004803500140A04300400051004090050048C25100409C05004822510040A405004830510040AC050048224300400048004004000840F5
:4009C000B0430040000000000230800803D000BF01380046FCD17047EFF3108072B6704780F31088704700BF01BE704710B5044605E0084B1868FFF7E7FFA4F50044B4F504
:400A0000004FF6D8034B586800FB04F0FFF7DCFF10BD00BF0CC1FF1F08B5034B1B7A03FB00F0FFF7D1FF08BD0CC1FF1F70B504460E46074B1D681F2802D90020FFF7D4FFAB
:400A400004F01F04103455F8240045F8246070BD08ED00E038B504460D46072902D90020FFF7C2FF1F2C02D90020FFF7BDFF04F01F0000F1604000F564406D01EDB20570C4
:400A800038BD00BF7222084B1A702022033B1A700622A3F5AF731A70472210331A70002251331A70704700BF8765004010B5FFF793FF04460A4A137843F020031370033A07
:400AC000137843F010031370FD3A137843F01003137000F04BF82046FFF782FF10BD00BF9765004008B5054B1B7823B9FFF7CAFF0122024B1A70FFF7D9FF08BD10C3FF1F86
:400B0000084B1B78DBB213F0200F06D0064A1078C0B213F01E0F02D17047002070470020704700BF6465004044650040034B1B7813F0040FFAD1024B18707047676400407E
:400B400047640040084B1B7833B97047305DFFF7EDFF0134E4B203E070B50D4606460024AC42F3D370BD00BF10C3FF1F054A137843F0040313701032137843F0040313704A
:400B8000704700BFA243004008B5FFF7B9FFFFF7F1FB08BD014B1B685864704708ED00E04001C0B2014B1870704700BF01E400E00222014B1A60704700E100E00222014BDD
:400BC0001A60704780E100E008B5FFF7F7FF0448FFF7E0FF0720FFF7E3FFFFF7E9FF08BD890B0000024A137843F080031370704774640040024A137803F07F03137070471E
:400C000074640040014B1880704700BF08680040014B1880704700BF88680040014B1880704700BF48680040014B1880704700BF68680040014B1870704700BF85640040E1
:400C4000014B1878704700BF65640040014B188880B27047A868004008B501E0FFF7F6FFFFF7EEFF10F0100FF8D108BD10B5174A137803F0C00343F00903137020321378D5
:400C800043F001031370124C237843F0010323704FF4FA60FFF7B6FF4FF4FA60FFF7B8FF4FF47A70FFF7BAFF3F20FFF7BDFF0020FFF7C0FFFFF790FE237843F0100323706B
:400CC000FFF78EFEFFF7C8FF10BD00BF746400409564004008B5054B1B7823B9FFF7C6FF0122024B1A70FFF77DFF08BD12C3FF1F084A137843F0010313701032137843F0E6
:400D00000103137002F64D32137843F001031370704700BFA3430040014B1870704700BF034F0040014B1880704700BF044F0040014B1880704700BF064F004008B5164AFF
:400D4000137803F0010313700232137803F0FC031370124B1A7802F0CF021A701A7842F030021A701A7802F0F0021A701A7842F00F021A700A4A137843F00103137045F64B
:400D8000BF50FFF7CFFF45F6BF50FFF7D1FF0820FFF7C2FF08BD00BF004F00400B4F0040014F004008B5054B1B7823B9FFF7C6FF0122024B1A70FFF79BFF08BD13C3FF1FBA
:400DC00008B50F4A138801339BB213800D490A88013292B20A80B2F57A7F05D901210A4A11800021074A1180052B05D90122074B1A700022024B1A80FFF722FC08BD00BF0F
:400E0000B2C3FF1FB0C3FF1FAEC3FF1FB6C3FF1F014B1B689864704708ED00E04001C0B2014B1870704700BF02E400E00422014B1A60704700E100E00422014B1A60704747
:400E400080E100E008B5FFF7F7FF0448FFF7E0FF0720FFF7E3FFFFF7E9FF08BDC10D0000044A137803F0FD03400000F0020018431070704700510040044A137803F0FB030C
:400E8000800000F004001843107070470051004008B50A280FD00C2802D0082806D102E04FF4805209E04FF4807206E00020FFF79BFD002201E04FF480620021094B1980E1
:400EC00042F2107303FB02F303F6C413064A82FB0302DB17C3EBE223044A1360044B198008BD00BFBEC3FF1FAD8BDB68B8C3FF1FBCC3FF1F10B5FFF76FFD04461E4A137820
:400F000043F0010313701032137843F001031370193A137843F0010313701032137843F00103137002F5AA521132137843F0030313701822114B1A70013B1A7842F0400272
:400F40001A701A7802F0FC021A70C822053B1A700222A3F597530C3B1A70094A137843F0080313700A20FFF757FD0122054B1A602046FFF735FD10BDAB4300400659004088
:400F8000275B004080E200E010B504460A280DD00C2802D0082804D101E0C22207E0422205E00020FFF720FDC22200E08222034B1A702046FFF76CFF10BD00BF02590040AE
:400FC00008B5102000F03EF800200721FFF742FD00200749FFF72AFD064A137843F0060313700C20FFF7D0FF0022034B1A8008BD4110000001590040C0C3FF1F08B5054BE1
:401000001B7823B9FFF7DCFF0122024B1A70FFF771FF08BD14C3FF1F024A137843F001031370704700590040034B1B88034A1088181A00B2704700BFA05B0040BCC3FF1F6D
:40104000704700BF034B1A7800F0F80010431870704700BF824000400E4B70B51E460E4C0025E41AA410A54204D056F8253098470135F8E700F04EF8084B094C1E46E41A3A
:40108000A4100025A54204D056F8253098470135F8E770BD2011000020110000201100002811000010B5431E0A44914204D011F8014B03F8014FF8E710BD03460244934241
:4010C00002D003F8011BFAE77047000000000000004F00400C00105100401000405100403000F0510040100000000140001080140140800700400140000A004C01400002CA
:401100000050014020000000001401401005004880000000F8B500BFF8BC08BC9E4670474D000000A1060000F8B500BFF8BC08BC9E467047290000004811000008C1FF1F71
:4011400018000000A8020000000000000000E02EC05D00001800000000366E01000000000000000000000000000000000000000000000000000000000000000000000000C5
:40118000000000000000000000000000000000000000000000000000000000000000000000000000000000000000000000000000000000000000000000000000000000002F
:4011C00000000000000000000000000000000000000000000000000000000000000000000000000000000000000000000000000000000000000000000000000000000000EF
:4012000000000000000000000000000000000000000000000000000000000000000000000000000000000000000000000000000000000000000000000000000000000000AE
:40124000000000000000000000000000000000000000000000000000000000000000000000000000000000000000000000000000000000000000000000000000000000006E
:020000040001F9
:0200000480007A
:40000000024F004004520040015B0040036400400265004047020140210301404804014020050140600601403D070140010D01403C1501403416014028170140011B014058
:4000400006400140074101400842014007430140014501400346014002470140034801400C490140014C0140024D0140055001400151014001800A27012019101C086108CD
:400080002784830F850F870F8438877202011A022A02300234014020410649FF4AFF4BFF4DA04F045018528058045A045B045C015D115F01604062C06440654066C068C0D9
:4000C0006AC06CC06EC08C08940297019B01A20CA603B004B201B301B402B608BF04C020C106C5D5C601C702C817C9FFCAFFCBFFCDAFCE0FCF04D018D407D804D904DA04E4
:40010000DB04DC01DD11DF01E040E2C0E440E540E6C0E8C0EAC0ECC0EEC0004007800A100D2010A01604184019901A101D201F0122043120320841204520482049014A08FD
:400140004E085080520C59915A087780C011C244C44CCC06D024D224D60FE6082E01340136014010410249FF4AFF4BFF4DA04F045018528058045A045B045C015D115F017B
:40018000604062C06440654066C068C06AC06CC06EC087018A0C8B0290029E04A501AE03AF02B001B101B202B408B502B604BF10C060C103C5D0C620C751C83AC9FFCAFF5E
:4001C000CBFFCDAFCE0FCF04D018D407D804D904DA04DB04DC11DD11DF01E040E2C0E440E540E6C0E8C0EAC0ECC0EEC006040E8110021602180119801A011B101EA21F100E
:4002000027882D802F103E284001412046204F215520562E5E205F897002AB01C040C290C481CA50CE60D04CD220D6F0000C02710320040906D00A030B0D0C100EAC15324E
:400240001620170C1B301C101E402107233824DC262228142D072F183303341F353C36E039083A803B203F044002454049FF4A074BFF4C404D204EF04F05500858045904DF
:400280005A045C225D025F01604061A86240632086088702880389048A148C138D028E0C901391029204A101A40AA614AA15B00FB301B506B610B922BA02BE40BF05C0534B
:4002C000C101C5ECC6B0C80BC9FFCAFFCBFFCEF0CF44D00CD401D604D804D904DA04DB04DC22DD22DF01E6C0EA40EB0200200120022003120401059007100B800F21112066
:4003000013081520170819401B021C011D101F40210222242404272829012D802F4233023620370838043A203B803F21400142204720481049814F0151105510562057106D
:4003400059615A0862028102A602B202B601C0F7C2A8C466CA91CC61CEAED02AD208D60FD801EA10EE20E60800280180022409400A54101811401306180119251A142124BE
:40038000224123022818298032693A843B20404D42104A085180531059016120628063808008828083418C048E4090449140930495089690970199809D249E80A014A14043
:4003C000A288A580AF40B202B304C007C20FC40FCA0ECC0FCE0ED00FD204D601D80DE810080136013E4058045F0181108433860C8704880389088C1F8E208F409002913C6F
:400400009302953F9623981C99279A239B189C019F40A008A11CA321A404A723A80CA918AC3FAD04B010B138B40FB51FB62CB740BAA0BB28BE01BF40D602D713D804D904FF
:40044000DB04DC22DD20DF01000401A005100A900B0510811328180419811B601F40204021082288230429042AA02B40318832023320386039083A02590168146940709072
:4004800072227328840185489910C047C20FC40FCA0FCC0FCE0FD601E81032803304371144404704CCF0630886809C409F11A680D840E610104050049C409F11AB04C41067
:4004C000D420EE206B8083809F10B301B404DC20E280850819089D08C6084402D00424089F10C82007046310831493109F10AF10B404C080D840E080E220EA109C02B402AF
:40050000E808000608020A0610041A0400EF0000000000009C0300009C00000800010306030000080010030007033800030200011200440000000310091044008000001081
:40054000031080041C0860030002000000004010230604000100EC000CFFFFFF62A0F0410C0000001800040004040404222200010000000000004002001030100010101274
:40058000000000000000000000000000000000004000007676002000000000000008080008000000000000000000200010000810100010000000000000000000000000006F
:4005C00000000000000000000000000000000000000000000000000000000000000000000000000000000000000000000000000000000000000000000000000000000000FB
:4006000000000000000000000000000000000000000000000000000000000000000000000000000000000000000000000000000000000000000000000000000000000000BA
:40064000000000000000000000000000000000000000000000000000000000000000000000000000000000000000000000000000000000000000000000000000000000007A
:40068000000000000000000000000000000000000000000000000000000000000000000000000000000000000000000000000000000000000000000000000000000000003A
:0200000490006A
:0400000000004005B7
:0200000490105A
:04000000BC90ACAF55
:0200000490303A
:0200000014BD2D
:0200000490402A
:4000000000000000000000000000000000000000000000000000000000000000000000000000000000000000000000000000000000000000000000000000000000000000C0
:400040000000000000000000000000000000000000000000000000000000000000000000000000000000000000000000000000000000000000000000000000000000000080
:0200000490501A
:0C00000000012E13306900012E1B452664
:00000001FF